:020000040800F2
:10000000C00900202902000813200008851E0008EE
:10001000112000081F040008212300080000000030
:100020000000000000000000000000002D2000087B
:100030003105000800000000152000082F200008EE
:10004000430200084302000843020008430200087C
:10005000430200084302000843020008430200086C
:10006000430200084302000843020008430200085C
:10007000D9040008430200084302000843020008B4
:100080004302000843020008430200083904000844
:100090002104000829040008310400084302000874
:1000A000430200084302000843020008430200081C
:1000B000430200084302000843020008430200080C
:1000C00043020008430200084302000843020008FC
:1000D0004302000809230008430200081523000812
:1000E00043020008430200084302000843020008DC
:1000F00043020008430200084302000843020008CC
:1001000043020008430200084302000843020008BB
:1001100043020008430200084302000843020008AB
:100120004302000843020008E504000843020008F7
:10013000430200084302000843020008430200088B
:10014000430200084302000843020008430200087B
:100150004302000843020008F104000843020008BB
:10016000430200084302000843020008430200085B
:100170004302000843020008430200080000000098
:10018000430200084302000800F002F800F03CF8C7
:100190000AA090E8000C82448344AAF10107DA45E2
:1001A00001D100F031F8AFF2090EBAE80F0013F0F8
:1001B000010F18BFFB1A43F0010318476C2300001E
:1001C0008C230000103A24BF78C878C1FAD85207AF
:1001D00024BF30C830C144BF04680C6070470000C1
:1001E0000023002400250026103A28BF78C1FBD840
:1001F000520728BF30C148BF0B6070471FB502F0DF
:1002000079F91FBD10B510BD00F0D0F81146FFF709
:10021000F5FF02F099F800F0EEF803B4FFF7F2FFF3
:1002200003BC00F0F5F80000094880470948004782
:10023000FEE7FEE7FEE7FEE7FEE7FEE7FEE7FEE796
:10024000FEE7FEE704480549054A064B70470000F3
:10025000DD20000889010008C0030020C00900203B
:10026000C0050020C005002053EA020C00F06980A0
:100270002DE9F04B4FF00006002B1FBFB3FA83F5BA
:1002800003FA05F424FA05F65E4012BF1643B2FAEB
:1002900082F502FA05F4C5F120051EBF22FA05FC1D
:1002A00044EA0C04203556EA044C4FEA144418BFC3
:1002B000641C4FF000084FF00009904271EB030CF2
:1002C00039D3002919BFB1FA81F701FA07F6B0FA5C
:1002D00080F700FA07F6C7F120071EBF20FA07FCD7
:1002E00046EA0C062037B6FBF4FCA7EB0507103FE7
:1002F00007F01F0BCBF120062CFA06F60CFA0BFBCD
:1003000044BFB3460026202FA4BF5E464FF0000B2B
:100310005BEA060C08BF4FF0010B19EB0B0948EB29
:100320000608ABFB027C06FB02CC0BFB03CCC01B1C
:1003300071EB0C01C1E70B46024641464846BDE859
:10034000F08B13B5084318BF4FF0FF300146AFF3F1
:100350000080BDE81C4070474FF0000200B5134616
:1003600094469646203922BFA0E80C50A0E80C50D5
:10037000B1F12001BFF4F7AF090728BFA0E80C5086
:1003800048BF0CC05DF804EB890028BF40F8042B7F
:1003900008BF704748BF20F8022B11F0804F18BFEC
:1003A00000F8012B7047704770477047754600F0A2
:1003B0002BF8AE4605006946534620F007008546F7
:1003C00018B020B5FFF73EFFBDE820404FF0000613
:1003D0004FF000074FF000084FF0000BAC46ACE8C0
:1003E000C009ACE8C009ACE8C009ACE8C00921F01C
:1003F00007018D46704710B50446AFF300802046D4
:10040000BDE81040FFF709BF004870471800002002
:1004100001491820ABBEFEE7260002007047FEE748
:100420002C4800F0FBB900BF2A4800F0F7B900BF24
:10043000284800F0F3B900BF264800F0EFB900BF2C
:10044000B0B58AB000EE103A214CB8EEC00A84ED87
:10045000040A00EE102AB8EEC00A84ED030A00EE8A
:10046000101AB8EEC00A84ED020A00EE100AB8EEC7
:10047000C00A082584ED010A002408954FF4007590
:1004800003940495CDE9064403F00F041B0A8DF88C
:1004900007408DF8063002F00F03120A8DF8053080
:1004A0008DF8042001F00F02090A8DF803208DF861
:1004B000021000F00F01000A8DF801108DF8000005
:1004C000044804A96A4603AB00F06DF80AB0B0BD59
:1004D000D8010020EC010020014800F051BC00BF11
:1004E000D4020020014800F04BBC00BF14020020E1
:1004F000014800F045BC00BF7402002010B501683F
:100500006FF00F0252FA81F21823B2FBF3F306A444
:10051000E35C40F2FF34A1435F2A88BF0431C0E9A5
:100520001613084610BD00BF000610160006101670
:100530007047000030EEC02A30EE200A31EE423A19
:10054000B3EE044A0B4831EE405A32EE012A30EE47
:10055000010A23EE043A25EE045A22EE042A20EE84
:10056000040A80ED092A80ED0A5A80ED0B3A80EDED
:100570000C0A704778000020EFF3108072B6FEE797
:1005800090F82020013A012A04D8006800F11402F2
:10059000002004E000F1240201204FF480211368C0
:1005A00019431160704770B590F820600468013EEF
:1005B000A568012E0CD815F0E05F0FD0C5F30165DA
:1005C000032D11D100F1240101204FF4000232E08B
:1005D00000F1240101204FF480222CE000F12401DD
:1005E00001204FF4001226E00120A840186088681E
:1005F00018B14B6840EAC30301E00868430504EB07
:100600000510D1E903452343C0F88031C0F8845177
:10061000097D012905D100F5C2710B6843F480738F
:100620000B605168C0F88C1111680122C0F8881164
:1006300000F5C07100200B681A430A6070BD00000D
:10064000F0B590F82020013A012A2AD830480268F3
:1006500042F001020260026822F47C5202604C699E
:10066000CD694A6A0368012D43EA0222026004F060
:100670001F024FF0010303FA02F2C36923EA0203E7
:10068000C3616FEA020312D025BBC5681D40C56077
:10069000CE688F8800EBC40547EA06462E640D46F7
:1006A00011E0416A41F4802141620120F0BDC5683A
:1006B0001543C5600E688F8800EBC40547EA0646FF
:1006C0002E6401F10C058E682D8800EBC40445EA08
:1006D0000645656444688F6944EA02050E69096A43
:1006E000002F08BF04EA030545604469002E44EA70
:1006F000020508BF04EA03050129456102D1C16969
:100700001143C161016821F0010101600020F0BDC9
:1007100000660040704770B590F82040013C012C05
:100720006CD8046800290CBFE5682569AD076BD05B
:1007300004EB0114D4F8B05115F004059560D4F819
:10074000B06104F5D87519BFF6085660760D1660CD
:100750002D68002905F00205D560D4F8B45105F0E4
:100760000F051561D4F8B451C5F307259561D4F888
:10077000B4514FEA15455561D4F8B8211A70026892
:1007800002EB0112D2F8B8214FEA12225A70026825
:1007900002EB0112D2F8B8214FEA12429A700268B5
:1007A00002EB0112D2F8B8214FEA1262DA70026845
:1007B00002EB0112D2F8BC211A71026802EB01129D
:1007C000D2F8BC214FEA12225A71026802EB0112E0
:1007D000D2F8BC214FEA12429A71026802EB011270
:1007E000D2F8BC214FEA1262DA7100680CBF00F146
:1007F0000C0100F11001002020220AE000F1240188
:1008000001204FF4802204E000F1240101204FF484
:1008100000120B681A430A6070BD00002DE9F84F02
:10082000044600684669D0F804908768D0F80CB098
:10083000D0F810A0D0F81880F10701D1002549E0C8
:10084000F9070ED001218160B80707D478071DD4BD
:10085000380721D4204600F039FA02E0204600F0A3
:1008600036FA0025F8051CD520684FF480718160A8
:10087000B80507D478050CD4380510D4204600F00C
:1008800027FA0EE0204600F024FA0AE04FF4006553
:10089000E8E705F5005504E04FF48055E2E705F57B
:1008A0008045F80316D520684FF480318160B80385
:1008B00007D4780309D438030AD4204600F00AFA92
:1008C00008E0204600F007FA04E005F5004501E0E5
:1008D00005F58035300707D51BF0100004D02068DF
:1008E000102145F40075C160700708D51BF00800A1
:1008F00005D020680821C160204600F055F9B007F6
:1009000006D52068C068800702D0204600F04EF966
:10091000700607D51AF0100004D02068102145F4A5
:1009200080650161B00608D51AF0080005D020687E
:1009300008210161204600F09BF9F00606D52068E9
:100940000069800702D0204600F093F9B00308D573
:1009500019F0100005D0206810214160204600F0F9
:1009600089F9F00308D519F0080005D0206808219E
:100970004160204600F0B0F9300440D55FEA49708C
:100980003AD506F4807008EA102028435FEA88719F
:10099000014648BF41F00201B20558BF01465FEA77
:1009A00048700D4648BF45F00405700558BF0D4618
:1009B000300521D518F070001ED010380009052828
:1009C00015D8DFE800F00306090C0F1245F0080502
:1009D0000DE045F010050AE045F0200507E045F080
:1009E000400504E045F0800501E045F4807520688D
:1009F000816921F0700181612068042141603DB16D
:100A0000606A284360622046BDE8F84FFFF782BE67
:100A1000BDE8F88F70B5C0B1044690F8200010B959
:100A2000204600F06FF82068016841F00101016084
:100A300000F0D0FB054620684168C90707D100F0E7
:100A4000C9FB401B0B28F6D311E0012070BD0168E3
:100A500021F00201016000F0BDFB054620684168FD
:100A600089070BD500F0B6FB401B0B28F6D3606A54
:100A7000052140F400306062012040E0217E0268E0
:100A8000012922F0800308BF42F080030360617EE9
:100A90000268012922F0400308BF42F040030360CE
:100AA000A17E0268012922F0200308BF42F0200342
:100AB0000360E17E0268012942F0100308BF22F0C2
:100AC00010030360217F0268012922F0080308BF98
:100AD00042F008030360617F0268012922F00403E9
:100AE00008BF42F004030360261D6ECE1A432A435A
:100AF000324301391143C16100200121606284F851
:100B0000201070BDB0B586B0044601A81421FFF7CF
:100B100023FC2168204881423CD100211F4A0091DA
:100B2000136900F5D43043F000731361136903F0C7
:100B300000730093009B0091136843F00803136057
:100B4000126802F008020092092205920322CDE900
:100B500003120221CDE90121009901A900F064FAF4
:100B60000F4C132000210022A0470E4D1320A84750
:100B7000142000210022A0471420A847152000219E
:100B80000022A0471520A847162000210022A047D8
:100B90001620A84706B0B0BD0064004030380240BF
:100BA000B51200089912000870470000B0B58AB06D
:100BB00003AA01AB0021FFF7AEFD0399A1F20120CA
:100BC00003284DD84FF0040038BFA1F50070BDF8E0
:100BD0000620244C12BA04EB4001120C224BA060F8
:100BE0008A81BDF8042053F8205012BA120C0DB1BE
:100BF000CC8A15E0012543F820501C4D00EE102A48
:100C000004EB8004CA82B8EE400A94ED0D1A05EB9D
:100C1000800585ED190A31EE000A84ED0D0A1446AF
:100C200024B2141BB4F5805F05DB03EB8004636919
:100C3000013B636107E003EB80056B6914F5805F9E
:100C4000DCBF01336B61CA82084901EB8000C3EB52
:100C50004331114400EE101AB8EEC00A80ED140AB8
:100C60000AB0B0BD7800002060010020E80000203C
:100C7000704770477047B0B5044690F820000128CF
:100C80001BD1022084F820002068016821F00101B6
:100C9000016000F09FFA054620684068C00712D046
:100CA00000F098FA401B0B28F6D3606A40F400303D
:100CB0006062052084F8200003E0606A40F40020B0
:100CC00060620120B0BD00206062B0BD7047704717
:100CD0007047704770477047704770B5866D04461F
:100CE00000F078FA054694F8350002281ED12068F5
:100CF000216C026822F016020260426922F0800232
:100D0000426109B9A16C19B1016821F008010160C3
:100D1000016821F0010101600068C0070AD000F0FD
:100D200059FA401B05280FD82068F5E78020606538
:100D300001200EE0E06D3F2101FA00F0B0600120DB
:100D400084F83500002004E020206065032084F84A
:100D50003500002184F8341070BD90F83510022958
:100D600009D1052180F835100068016821F00101E2
:100D7000016000207047802141650120704700001C
:100D8000F8B5044600200090D4E91660574A0821BF
:100D900015683768814039420CD0226813685B07B8
:100DA00008D5136823F004031360B160616D41F04E
:100DB0000101616501218140394208D022685269F0
:100DC000120604D5B160616D41F002016165042134
:100DD0008140394208D022681268920704D5B16078
:100DE000616D41F00401616510218140394217D0E5
:100DF00020680268120713D5B160026801685203C7
:100E000006D4C90506D4016821F00801016001E09B
:100E1000080301D4216C00E0A16C09B12046884789
:100E2000E16D202000FA01F23A423BD020680368CD
:100E3000DB0637D5B26094F835300268052B19D13E
:100E400022F016020260426922F080024261226CA6
:100E50000AB9A26C1AB1026822F0080202603F20AF
:100E60008840B060002084F83400012084F8350008
:100E7000216D37E0016852030CD4C9050ED4016816
:100E800021F010010160002084F83400012084F872
:100E9000350003E0080301D4616C00E0E16B09B1A7
:100EA00020468847606D00B3606DC00719D00521EA
:100EB00084F8351021684FF416500A68B5FBF0F03D
:100EC00022F001020A60009A01328242009202D8A6
:100ED0000A68D207F7D1002084F83400012084F892
:100EE0003500E16C09B120468847F8BD10000020AC
:100EF0002DE9F041044600F06DF9ACB10546022041
:100F000084F83500002084F834002168086820F057
:100F1000010008600868C00709D000F05BF9401BB9
:100F2000052837D82168F5E70120BDE8F081086879
:100F3000344A271DE8CF00EA020E43EA0E032B4392
:100F4000D4E9050C33433B43D4E90728184340EA6E
:100F50000C00636A104340EA0802042B1ED1D4E956
:100F60000A53206B1A431043086051F8140F20F005
:100F7000030040EA050040F00402B3B1BCF5005F95
:100F800024D0BCF1000F31D1022D32D0012D27D059
:100F90007DB30AE003262027032012E00A6051F8FF
:100FA000140F20F0070040EA030220460A60FFF712
:100FB000A5FAE16D3F2202FA01F1816000270126C6
:100FC0000020676584F83560BDE8F081032DECD81A
:100FD000012640270120DFE805F0020C0203F0E7BC
:100FE000A3F1C070B0FA80F0400904E0032D04D3EF
:100FF000DBD1C3F300600028D7D0012640270120B1
:10100000DFE700BF3F8010F0B0B5044600F0E2F823
:1010100005469248611C007818BF044400F0DAF8D5
:10102000401BA042FAD3B0BD2DE9FC4F634A08240F
:101030009042634A08BF072402444FEAB223072BB9
:101040004FF0010B4FF000094FF000034FF0000A82
:1010500038BF4FEAB2240094202B08BFBDE8FC8FB4
:101060000F680BFA0AF6374200F0A2804F6807F0CB
:101070000308A8F10104012C18D80322856802FA9C
:1010800003F425EA040CCD684FEA4A0E9D4045EA78
:101090000C058560C7F3001505FA0AFC4568B543E1
:1010A00045EA0C056FEA040C45600BE003249C4004
:1010B0006FEA040CB8F1030F9E4603D19E464FF031
:1010C000030820E0C4688D6804EA0C0405FA0EF5F4
:1010D0002C43B8F1020FC46015D109F01C040F2293
:1010E00002FA04F86FF0030202EA5A0707443D6A65
:1010F00025EA08080D6905FA04F444EA08043C628C
:101100004F6807F00308056808FA0EF405EA0C05B5
:101110002C4317F4403F04604AD0002201922B4A2E
:101120002AF00307146844F48044146014680F2202
:1011300004F48044019409F00C0402FA04FC214AEE
:10114000019D96461744224A9046BD58009A25EACA
:101150000C0502FA04F42C4347F80840DEF8084076
:101160004F6844EA0605FA02174A58BF24EA060502
:10117000CEF8085094461268BD0242EA060458BFF1
:1011800022EA0604CCF80040DEF80420BD0342EA5F
:10119000060458BF22EA0604CEF80440DEF8002018
:1011A000FD0342EA060458BF22EA0604CEF80040D6
:1011B00009F1040902330AF1010A4DE7001C02405B
:1011C0000000FEBF003C01400C3C0140443802409E
:1011D00008FCFFFF05480068704700BF1F4803492F
:1011E00000780A6810440860704700BFBC03002004
:1011F00080B50B48016841F400710160016841F459
:1012000080610160016841F480710160032000F099
:101210006DF80F2000F006F800F022F8002080BDE5
:10122000003C024070B50D4E044630784FF47A71A0
:10123000B1FBF0F089490968B1FBF0F000F0D4FA95
:1012400001250F2C08D838B94FF0FF302146002275
:10125000002500F02FF87460284670BD08000020BB
:1012600082B000200B4901904A6842F480424A60F3
:101270004A6802F480420192019A0090086840F0A6
:1012800080500860086800F080500090009802B01C
:10129000704700BF40380240002808D400F01F010A
:1012A000012202FA01F1024A400942F82010704777
:1012B00000E100E0B0B5134B4FF0FF351B68C3F3FE
:1012C0000223DC1E83F0070338BF0024042B28BF51
:1012D000042305FA03F3994305FA04F3A1409A4362
:1012E0001143BDE8B04001F01DB800BF05494FF6FD
:1012F000FF030A681A4060F30A220348104308609B
:10130000704700BF0CED00E00000FA052DE9F04148
:10131000002800F08680444B0446D3F80004884639
:1013200000F00700884207D283F80084D3F8000455
:1013300000F00700404574D12068810711D54107AE
:1013400003D5996841F4E0519960010703D5996884
:1013500041F460419960A1689A6822F0F00211435B
:101360009960C0072BD06068811E022903D21968DA
:10137000890109D455E0012803D11968890303D4F0
:101380004FE0196889074CD599681D4621F0030183
:1013900008439860FFF71EFF064641F288376068F1
:1013A000A9682B4601F00C01B1EB800F07D0FFF7C5
:1013B00011FF801BB842F2D90320BDE8F081D3F8B9
:1013C000000400F00700404507D983F80084D3F8F3
:1013D000000400F00700404523D12068410705D5EF
:1013E000E1689A6822F4E05211439960000706D53B
:1013F0002069996821F4604141EAC00098601C4668
:1014000000F032F8A168094AC1F30311515CC840E9
:101410001249086006480068FFF704FF0020BDE895
:10142000F0810120BDE8F081003802400E2500085F
:101430000C00002009480A4900680968094AC1F3FC
:101440008221515CC840704704480549006809681A
:10145000044AC1F34231515CC8407047100000207B
:10146000083802401E25000810B5134C606800F0D3
:101470000C00082804D0042814BF1048104810BDE0
:101480002268206802F03F0240020D485CBF42F231
:101490000040C0F2F40021680023C1F38811A0FBD2
:1014A0000101FEF7E1FE21680222C1F3014102EBD6
:1014B0004101B0FBF1F010BD043802400024F400FB
:1014C000001BB7002DE9FC41002800F0D080044645
:1014D0000078C24EC00744D0B06800F00C00042869
:1014E00005D1306880033CD56068D0BBBFE0B068F0
:1014F00000F00C00082802D170684002F1D467683F
:10150000B7F5803F06D03068B7F5A02F12D140F470
:1015100080203060306840F480303060FFF75AFE41
:101520000546306880031CD4FFF754FE401B642836
:10153000F7D9DFE020F480303060306820F480207C
:101540003060FFF747FE0546002FEAD106E0FFF7BF
:1015500041FE411B0320642900F23E813068800374
:10156000F5D4207880072CD5B06810F00C0F07D088
:10157000B06800F00C00082809D17068400206D459
:101580003068800716D5E068012813D06FE0E06866
:10159000002800F0D080924801210160FFF71AFE78
:1015A00005463068800705D4FFF714FE401B02286B
:1015B000F7D99FE02069316821F0F80141EAC000C5
:1015C00030602078000720D56169854871B101211C
:1015D000C0F8801EFFF7FEFD0546706F800714D42B
:1015E000FFF7F8FD401B0228F7D983E00021C0F87F
:1015F000801EFFF7EFFD0546706F800705D5FFF7EA
:10160000E9FD401B0228F7D974E02078400731D467
:10161000A769002F00F0DF80B06800F00C000828F8
:101620006BD1012F23D0E169706800F480028A42F7
:101630001DD1216A00F03F028A4218D147F6C071DD
:10164000626A0140B1EB821F11D1A16A4FF6FF72AD
:10165000C9039143A1F5803100F440328A4206D19A
:10166000E16A00F07060B0EB016F00F0B48001201F
:10167000BDE8FC81306C4FF00008C0000CD4CDF800
:101680000480306C4FF0010840F080503064306CC2
:1016900000F0805001900198524F3868C0050FD477
:1016A000386840F480703860FFF794FD054638686C
:1016B000C00505D4FFF78EFD401B0228F7D919E0BD
:1016C000A768012F05D0306F052F45D140F00400E9
:1016D0003067306F40F001003067FFF77BFD054653
:1016E00041F28837306F80074ED4FFF773FD401BFF
:1016F000B842F7D90320BDE8FC813949002088466B
:101700000866FFF767FD0546022F0AD14746306895
:10171000800142D5FFF75EFD411B03200229F6D967
:101720005AE03068800156D5FFF754FD411B032075
:101730000229F6D950E02A4800210160FFF74AFD4E
:101740000546306880077FF53CAFFFF743FD411B3E
:1017500003200229F5D93FE020F001003067306F07
:1017600020F004003067FFF735FD0546002FB7D1A4
:1017700041F28837306F800706D5FFF72BFD411BFC
:101780000320B942F6D927E0B8F1000F3FF440AF8B
:10179000306C20F0805030643AE71C341FCC084392
:1017A00040EA8210D9034FF6FF72914340EA046089
:1017B000A1F580310843706001203866FFF70AFD0B
:1017C00004463068800106D4FFF704FD011B0320A6
:1017D0000229F6D900E00020BDE8FC810038024073
:1017E0000000474200700040411E0020B0EB116F26
:1017F0001CBF01207047044AF023516003490B705D
:10180000072190601160704710E000E023ED00E0D8
:10181000BCB5044690F83E00202806D1012529B128
:1018200022B194F83C00012802D102252846BCBD13
:1018300001252046256384F83C5000F049FD206BCB
:101840000128F3D1002001902068016801914168CE
:101850000191019950E8030F216840F0100041E820
:1018600003020AB12068F5E70025DFE7F0B500685C
:101870005549884218BFF0BD5448DFF864CC90F851
:101880003C1090F8542081F00F011143B1FA81F11E
:101890004FEA51128CF8002040F0928090F83D20E1
:1018A00090F83E3090F83F4063F30A2290F84050A1
:1018B000A0F85620DA0864F34A12A0F8582090F8ED
:1018C000413090F842205E0862F3CA16A0F85C60CE
:1018D00090F84360120966F30A12A0F85E2090F8AF
:1018E000457090F84620B90862F38A11A0F862109A
:1018F000A90041EA941103F0010341EA8321A0F811
:101900005A1090F8441007F00303490041EAD61139
:1019100041EA4321A0F8601090F8471090F8483051
:1019200090F84940C90090F84A5064F30A2341EA0C
:101930005211A0F86630A0F86410E10865F34A116E
:10194000A0F8681090F84C2090F84D10530861F3FF
:10195000CA13A0F86C3090F84E30090963F30A11ED
:10196000A0F86E1090F84B1002F00102890041EAD5
:10197000951141EA8221A0F86A1090F84F1090F872
:101980005020490041EAD31102F0030341EA432108
:10199000A0F8701000218CF80010910890F85120E8
:1019A00090F8523062F38A11A0F87210D90041EA1F
:1019B0005211A0F87410B2FA82F040098CF80100BC
:1019C000BDE8F04000F028BB004800406001002066
:1019D00070470000F8B5044600680168C2684669AF
:1019E00001F02F0502F02003202D05D123B1204660
:1019F000BDE8F84000F0A7BB5FEA017E08D006F022
:101A0000010686F0010712F4907F53D1002F51D0C8
:101A10001140CA06226B3BD5012A39D10021009121
:101A2000016800914168009100994169490600F1FF
:101A30009080E18DA28DE38D002B00F00481511A7E
:101A40000A0401D1FFE0206850E8030F226820F467
:101A5000907042E80303002BF5D1206850E8050F91
:101A6000226820F0010042E80503002BF5D1202078
:101A700084F83E0000202063206850E8030F2268AD
:101A800020F0100042E80303002BF5D189B2A2E058
:101A90000A0600F1A580490640F1D580C16821F011
:101AA0004001C160202084F83D002046BDE8F84098
:101AB00000F0E7B9CD0718BF12F4807503D0256C8C
:101AC00045F00105256401F004054FF0010C8CEA96
:101AD00095053D4303D1256C45F00205256401F0D1
:101AE00002058CEA55053D4303D1256C45F00405FC
:101AF0002564334318BF0123BEF1000F04D51BB189
:101B0000236C43F008032364236C002B00F09B80BC
:101B10001140890603D5204600F015FB2068406976
:101B2000216C00F0400001F00801401868D0204608
:101B300000F0E2FA20684169490673D550E8050FC4
:101B4000216820F0400041E80502002A5ED02068AC
:101B5000F4E7A26B11684B689DB2002D73D0A18D84
:101B60008D4270D2E385D269B2F5807F30D050E8E3
:101B7000030F216820F4807041E803020AB1206855
:101B8000F5E7206850E8050F216820F0010041E8E2
:101B90000502002AF5D1206850E8050F216820F0E1
:101BA000400041E80502002AF5D1202084F83E00DB
:101BB00000202063206850E8030F216820F0100007
:101BC00041E80302002AF5D1A06BFFF786F8A18D4A
:101BD000E08D081A81B22046BDE8F840FFF746BE06
:101BE00094F83D1021292ED1A168B1F5805F01D173
:101BF0002169E1B1216A4A1C2262097841601DE035
:101C00002046FFF7E5FE00202064F8BDA06B48B138
:101C100012490165FFF7A1F8A8B1A06B016DBDE8FD
:101C2000F84008472046BDE8F840FFF7D1BE216ADA
:101C300031F8022B6FF35F2221624260E18C01399F
:101C4000E184090400D0F8BDC16821F08001C160C1
:101C5000C16841F04001C160F8BD00BFED2000083F
:101C600050B310B5044690F83D0028B9002084F820
:101C70003C00204600F022F8242084F83D00206833
:101C8000C16821F40051C160204600F0BDFA20680F
:101C9000016921F490410161416921F02A0141610A
:101CA000C16841F40051C16000202021206484F803
:101CB0003D1084F83E1010BD012070472DE9F0471B
:101CC00086B0044601A81421FEF746FB2068CF49E0
:101CD000884278D0BD49884240F0C4800027AE4891
:101CE00000974169614D41F01001416141694FF038
:101CF000070801F0100100910099009701684FF06A
:101D0000030941F00201016001684FF0020A01F08D
:101D10000201009100990097016801AE41F00101B4
:101D200001600068314600F00100009000988020BA
:101D3000CDF81480CDE90379CDF808A0019005F520
:101D40008060FFF771F94FF40070CDE90498CDE998
:101D500002A7019028463146FFF766F9464D454EE9
:101D60004FF480684FF0006905F114001421C5E9B3
:101D70000069C5E90277C5F81080FEF7EDFA28463C
:101D8000FFF7B6F808B1FEF7F7FBAC63A5633B4D70
:101D90004FF4403006F17801C5E908074020C5E955
:101DA000001905F1080181E881012846C5E9057798
:101DB000EF61FFF79DF808B1FEF7DEFB656305F103
:101DC0003800252545E0002673480096016941F456
:101DD00080210161016901F4802100910099009640
:101DE000016841F004010160006801A900F00400ED
:101DF0000090072005900320CDE9036002200290A7
:101E00004FF4406001900098184800F50060FFF71B
:101E10000BF9174D174B4FF44030C5E908064FF446
:101E200080704FF480614FF00062A3F58363C5E9D1
:101E30000032C5E90266C5E90416C5E90660284610
:101E4000FFF756F808B1FEF797FBA56305F13800D8
:101E500027250460284600210022FFF72BFA284698
:101E6000FFF71AFA06B0BDE8F08700BF0000024095
:101E7000D4020020406402401402002074020020BA
:101E800070477047FEE70000B0B50C480C4D0021CC
:101E90004FF400124FF410230324C0E90054C0E9AA
:101EA0000211C0E9043281618183FEF7B3FD18B1EC
:101EB000BDE8B040FEF760BBB0BD00BFEC01002044
:101EC00000640040BCB50020334901900A68144CFE
:101ED00042F480020A600A6802F480020192019AC8
:101EE00000900868002240F4001008600868002193
:101EF00000F40010009000980C20A047094D0C2021
:101F0000A8473A2000210022A0473A20A8474620AF
:101F100000210022A04746202946BDE8BC400847D2
:101F2000B51200089912000881B000211A480091EA
:101F3000026842F001020260026802F001020092AF
:101F4000009A0091026842F002020260026802F008
:101F500002020092009A0091026842F008020260B8
:101F6000026802F008020092009A0091026842F0B2
:101F700004020260026802F004020092009A0091DA
:101F8000016841F080010160006800F0800000906D
:101F9000009801B0704700BF3038024010B5DC48EF
:101FA000094B0A4C00210C22C0E90043C0E9021190
:101FB000C0E90412C0E90611FFF752FE18B1BDE8EE
:101FC0001040FEF7D9BA10BD009411000010014076
:101FD000F8B5D2480C4E0D4F00210C224FF480630F
:101FE0004FF400544FF48055C0E90076C0E9025424
:101FF000C0E90432C0E90611FFF732FE18B1BDE8AE
:10200000F840FEF7B9BAF8BDA086010000480040CC
:10201000FEE7FEE7704700000348192200F13C018B
:10202000BE48FFF7F5BB00BF600100207047FFF717
:10203000D5B80000B0B592B0002401A81421CDE9B4
:102040000A44CDE90844FEF787F922480094016864
:10205000022541F080510160006800F0805000903E
:1020600000981D480094016841F4804101600068B7
:1020700000F48040009004201190A82010950F904B
:1020800006200E904FF48000CDE90C504FF48030C4
:10209000079001200690009806A8FFF713FA18B1E0
:1020A000EFF3108072B6FEE74FF4805005904FF4C6
:1020B000A05004900F20CDE90254019001A8052101
:1020C000FFF724F918B1EFF3108072B6FEE712B0F3
:1020D000B0BD00BF403802400070004002480168B7
:1020E00041F470010160704788ED00E0806B0021D1
:1020F000C185C184FFF76CBC016851E8031F026809
:1021000021F4907142E80313002BF5D1016851E8E6
:10211000051F026821F0010142E80513002BF5D1EB
:10212000016B012909D1016851E8031F026821F000
:10213000100142E80313002BF5D1202180F83E1056
:1021400000210163704781B090F83E10222920D110
:102150008368B3F5805F08D10169002948D000F198
:1021600028010A6803685B680AE0014651F8282FD5
:1021700013B90369002BF5D003685B6803F07F0394
:1021800013700A6801320A60C18D0139C1850904E2
:1021900001D001B070470168CA6822F02002CA600D
:1021A000CA6822F48072CA604A6922F001024A6158
:1021B000202280F83E20026B012A22D100220263F5
:1021C00051E8031F026821F0100142E8031301687F
:1021D000002BF5D10A68D20606D5002200920A68C3
:1021E0000092496800910099818D01B0FFF73EBBD4
:1021F0000168826A49686FF35F2122F8021B8262DC
:10220000C2E701B0FFF73CBEB0B50446006804F178
:1022100008030ECB0569194325F440552A43026192
:10222000C268636949F20C651943E369AA4319431B
:102230001143C1604169A26921F4407111434161B8
:10224000224940F48060884202D1FFF7FDF801E0A6
:10225000FFF7F0F8E26919216368A0FB0101B2F50C
:10226000004F18D15A00DB0FFDF7FEFF6421B0FBD1
:10227000F1F26FF0630302FB0300322303EBC000B3
:10228000B0FBF1F14FF4F87000EA410000EB0210EE
:1022900001F0070115E09A009B0FFDF7E5FF6421AF
:1022A000B0FBF1F26FF0630302FB0300322303EB98
:1022B0000010B0FBF1F101F0F00000EB021001F0B2
:1022C0000F01084321688860B0BD00BF00140140C1
:1022D0000023C285036482858162222180F83C301C
:1022E00080F83E100168006918B1C86840F4807039
:1022F000C860486940F001004861C86840F02000AB
:10230000C8600020704700000148FFF763BB00BFB2
:10231000340300200148FFF75DBB00BF78030020B5
:10232000FEE7000010B5074C00F00F032344044AF9
:10233000B0F1FF3FC8BF83180801187010BD00BF7F
:1023400000E400E014ED00E08AB0FEF751FFFFF773
:1023500071FEFFF7E9FDFFF7B5FDFFF795FDFFF70C
:102360001DFEFFF735FE012500206C460795CDE9DF
:10237000050020461421FDF7EFFF0E20CDE908509F
:1023800055482146FEF75CF918B1EFF3108072B69C
:10239000FEE7514C2046FEF76EFC20460221FEF778
:1023A000EFF8FEF717FFFFF737FE4C4C4C4D4D4E44
:1023B0004D4F9FED4E8A9FED4E9AB4F85810B4F8E9
:1023C0005C20B4F85600A2F57A72A1F57A7100EE9D
:1023D000102A01EE101AA0F57A70B8EEC00AF8EED5
:1023E000C10A01EE100AB8EEC11AFEF7A3F8A968F7
:1023F00005EB4100B0F90C0005EB810292ED080AF3
:1024000001EE100A06EB8100B8EEC11A90ED0F2A1A
:1024100030EE410A97ED014A30EE422A24EE022ABC
:1024200090ED0A1A97ED003ABDEEC22A12EE103A6C
:1024300095ED012A46F8213000EE021A04EB8101E5
:1024400081ED0A0A80ED0F0A23EE000A80ED0A1AD8
:10245000BDEEC02A82ED122ABDEEC12A82ED172AF6
:10246000BDEEC00A10EE101ABDEEC10A10EE102A21
:102470001144194400EE101AB8EEC00A80ED050AA6
:102480001430B1F5804FB0EE480A04DA11F5804FF0
:10249000B0EE490A01DC80ED000A96ED060A96EDE1
:1024A000071A96ED082A96ED093ABDEEC00A10EE1D
:1024B000100ABDEEC10A10EE101ABDEEC20A10EEEF
:1024C000102ABDEEC30A10EE103AFDF7B9FF012045
:1024D000FEF79AFD71E700BFEC01002060010020CB
:1024E00078000020E8000020000000200000804666
:1024F000000080C6F1EE100A4FF6FF71C0F2C03145
:1025000020EA010040F04070E1EE100A7047000040
:102510000000000000000102030406070809000093
:10252000000001020304000048250008000000200C
:1025300018000000C40100086025000818000020F1
:10254000A8090000E00100080000803F0AD7233CF2
:1025500001000000100000000024F4000000000052
:040000050800018965
:00000001FF
