:020000040800F2
:10000000000002200D270008190800081B0800083E
:100010001D0800081F080008210800080000000053
:10002000000000000000000000000000230800089D
:10003000250800080000000027080008290800081B
:100040005D2700085D2700085D2700085D27000880
:100050005D2700085D2700085D2700085D27000870
:100060005D2700085D2700085D2700085D27000860
:100070005D2700085D2700085D2700085D27000850
:100080005D2700085D2700085D270008310800088B
:100090004108000851080008610800085D270008B1
:1000A0005D2700085D2700085D2700085D27000820
:1000B0005D2700085D2700085D2700085D27000810
:1000C0005D2700085D2700085D2700085D27000800
:1000D0005D270008710800085D2700085D270008FB
:1000E0005D2700085D2700085D2700085D270008E0
:1000F0005D2700085D2700085D2700085D270008D0
:100100005D2700085D2700085D2700085D270008BF
:100110005D2700085D2700085D2700085D270008AF
:100120005D2700085D270008810800085D2700089A
:100130005D2700085D2700085D2700085D2700088F
:100140005D2700085D2700085D2700085D2700087F
:100150005D2700085D270008910800085D2700085A
:100160005D2700085D2700085D2700085D2700085F
:100170005D2700085D2700085D27000800000000DB
:080180005D2700085D2700085F
:1001900001F0FF01102A2BDB10F0070F08D010F838
:1001A000013B013A8B422DD010F0070F42B3F6D13C
:1001B000F0B441EA012141EA014122F007047FF055
:1001C00000070023F0E80256083C85EA010586EAAC
:1001D000010685FA47F5A3FA87F586FA47F6A5FAE8
:1001E00087F68EB9EED1F0BC01F0FF0102F00702F4
:1001F00032B110F8013B013A83EA010313B1F8D19F
:100200000020704701387047002D06BF354603387F
:10021000073815F0010F07D1013015F4807F02BFB8
:10022000013015F4C03F0130F0BC0138704700BF09
:1002300053B94AB9002908BF00281CBF4FF0FF314D
:100240004FF0FF3000F00CB8ADF1080C6DE904CEB2
:1002500002F02CFFDDF804E0DDE9022304B0704772
:10026000704700BF10B5054C237833B9044B13B168
:100270000448AFF300800123237010BD6C00002000
:10028000000000006833000808B5034B1BB10349A8
:100290000348AFF3008008BD00000000700000209C
:1002A0006833000808B50D480D4B03600323436015
:1002B00000238360C3604FF4102202614FF40012E8
:1002C0004261037643768376C3760377437700F003
:1002D0000BFC00B908BD00F03FF9FBE788000020E7
:1002E0000064004010B588B0002303930493059385
:1002F000069307930268244B9A4201D008B010BDC0
:100300000024019403F5EA331A6C42F000721A6477
:100310001A6C02F000720192019A02941A6B42F078
:1003200008021A631B6B03F008030293029B03236A
:1003300003930222049206930923079303A9134807
:1003400001F03CFA22462146132000F0EDFF132075
:1003500000F0FAFF22462146142000F0E5FF1420A9
:1003600000F0F2FF22462146152000F0DDFF1520A7
:1003700000F0EAFF22462146162000F0D5FF1620A5
:1003800000F0E2FFBAE700BF00640040000C02404A
:1003900010B582B0002401940D4B1A6B42F4800218
:1003A0001A631B6B03F480030193019B22462146D1
:1003B0003A2000F0B9FF3A2000F0C6FF224621465D
:1003C000462000F0B1FF462000F0BEFF02B010BD95
:1003D0000038024084B000220092154B196B41F0A6
:1003E00001011963196B01F001010091009901925B
:1003F000196B41F002011963196B01F002010191BF
:1004000001990292196B41F008011963196B01F00F
:1004100008010291029903921A6B42F080021A635A
:100420001B6B03F080030393039B04B0704700BF72
:100430000038024010B58AB001AB03AA002100F0D9
:1004400041FD039A40F201239A4201D00AB010BD47
:100450009DF806209DF8073043EA0223224A1380C4
:100460009DF804209DF8053043EA022319B21F4A83
:100470001268C2B907EE903AB8EE677A1C4A82ED6C
:10048000007A1C4A108807EE900AF8EEE77A77EEB9
:10049000877AFCEEE77A17EE900A1080164A1180F0
:1004A000124A01201060144AB2F900209A1AB2F5DB
:1004B000805F03DB114C20680138206012F5805FFB
:1004C00003DC0E480268013202600B4A11800B4ABD
:1004D0001268C2EB4232134407EE903AF8EEE77A24
:1004E000074BC3ED007AB1E7EC000020C00000200C
:1004F000C40000200200002000000020BC000020FA
:10050000C800002000B58BB007EE900AF8EEE77A3D
:100510000F4BC3ED007A00230393019302934FF432
:1005200000720492082208920693079340FA02F39D
:100530008DF8043000F00F008DF8050003AB01AA20
:1005400004A9044800F040FC0BB05DF804FB00BFB8
:10055000B80000208800002072B6FEE700B58BB01E
:1005600000230593069301220792009301930293BF
:100570000393049308920E2309936946044800F0FC
:1005800059FB10B90BB05DF804FBFFF7E5FF00BFA6
:100590008800002000B595B03022002108A802F0A4
:1005A000FFF80023039304930593069307930193A5
:1005B000204A116C41F080511164126C02F080529B
:1005C0000192019A02931C4B1A6842F480421A600D
:1005D0001B6803F480430293029B012308934FF4AA
:1005E0008033099302230E934FF480020F92062268
:1005F0001092A822119212930423139308A801F0D9
:10060000D3F998B90F23039302230493002305938E
:100610004FF4A05306934FF480530793052103A88A
:1006200001F012FC20B915B05DF804FBFFF794FF50
:10063000FFF792FF003802400070004030B587B0ED
:1006400000F012FAFFF7A6FFFFF7C4FEFFF7A0FEC7
:10065000FFF728FE00F02EF9FFF780FF4B4C2046F5
:1006600000F084FB0221204600F0D1FC00F022FAC9
:100670001CE0DFED477A002501950295039504956E
:100680000595FDEEE77A17EE904A2246414901A80A
:1006900002F066F82B46142201A93F4801F001FE42
:1006A00020B2FFF72FFF012000F00AFA3B4B1B8816
:1006B00007EE103AB8EEC77A394BD3ED007A37EE31
:1006C000677A384BD3ED005A65EE875A364BD3ED37
:1006D000007A67EE277A354BD3ED006A77EEA67A7B
:1006E000C3ED007A324BD3ED006A37EE666A314AC9
:1006F00092ED005A26EE056A2F4A82ED007A77EED7
:10070000A57A77EE867A2D4AC2ED007A2C4AB2F9A4
:10071000002007EE102AB8EEC77A77EEC77A294A8A
:10072000C2ED007A284A92ED007A27EE877A274AAE
:1007300082ED007A264A92ED006A27EE866A254A03
:10074000D2ED005A36EE256A82ED006A77EEE66A4F
:10075000214AD2ED005A66EEA56AC3ED007A77EE23
:10076000067A77EEA67A9FED0A7AF4EEC77AF1EE72
:1007700010FABFF67EAF9FED197AF4EEC77AF1EE6C
:1007800010FA3FF678AFDFED157A74E788000020A5
:100790000000804680330008B001002002000020E5
:1007A000C800002004000020E0000020D800002045
:1007B000D0000020DC000020CC000020E800002059
:1007C000EC000020B40000200C000020B00000204D
:1007D000E4000020D400002008000020000080C6B3
:1007E00082B0002100910B4B5A6C42F480425A6453
:1007F0005A6C02F480420092009A01911A6C42F005
:1008000080521A641B6C03F080530193019B02B069
:10081000704700BF00380240FEE7FEE7FEE7FEE754
:10082000FEE770477047704708B500F037F908BD1C
:1008300008B5024800F009FC08BD00BF8800002090
:1008400008B5024800F001FC08BD00BF8800002088
:1008500008B5024800F0F9FB08BD00BF8800002081
:1008600008B5024800F0F1FB08BD00BF8800002079
:1008700008B5024801F00CFE08BD00BFB001002021
:1008800008B5024800F0ACFE08BD00BF50010020D2
:1008900008B5024800F0A4FE08BD00BFF00000202B
:1008A000034AD2F8883043F47003C2F888307047A6
:1008B00000ED00E008B50A480A4B03600A4B4360AC
:1008C00000238360C36003610C2242618361C361C2
:1008D00001F0B8FC00B908BDFFF73EFEFBE700BF22
:1008E000B001002000100140009411002DE9F041FA
:1008F00088B000230393049305930693079302683B
:1009000003F1804303F588339A4202D008B0BDE872
:10091000F08104460025009503F594335A6C42F0AB
:1009200010025A645A6C02F010020092009A01956B
:100930001A6B42F002021A631A6B02F00202019271
:10094000019A02951A6B42F001021A631B6B03F0C5
:1009500001030293029B802303934FF00208CDF81A
:100960001080032706970726079603A9254800F05D
:1009700025FF4FF400730393CDF81080059506977B
:10098000079603A9204800F019FF2048204B036078
:100990004FF0006343608560C5604FF4806303617E
:1009A00045618561C5610562456200F055FD18BB72
:1009B000164BA3639C631748174B03604FF000630B
:1009C0004360402383600023C3604FF48062026170
:1009D00043618361C3610362436200F03DFD70B90E
:1009E0000C4B63639C6300221146252000F09CFCA5
:1009F000252000F0A9FC89E7FFF7AEFDD8E7FFF757
:100A0000ABFDEDE700040240000002405001002071
:100A100040640240F0000020B864024010B5044673
:100A20000E4B1A784FF47A73B3FBF2F30C4A10684A
:100A3000B0FBF3F000F096FC68B90F2C01D901204F
:100A40000AE0002221464FF0FF3000F06DFC054B1C
:100A50001C60002000E0012010BD00BF1400002039
:100A6000100000201800002008B50B4B1A6842F453
:100A700000721A601A6842F480621A601A6842F4BE
:100A800080721A60032000F03DFC0F20FFF7C6FFC4
:100A9000FFF7A6FE002008BD003C0240034A116893
:100AA000034B1B780B441360704700BFF401002018
:100AB00014000020014B1868704700BFF4010020AB
:100AC00038B50446FFF7F6FF0546B4F1FF3F02D004
:100AD000044B1B781C44FFF7EDFF401BA042FAD3E8
:100AE00038BD00BF14000020002800F0A18038B5F8
:100AF000044690F82030D3B12268136843F0010314
:100B00001360FFF7D7FF054623685A6812F0010FFC
:100B100010D1FFF7CFFF401B0A28F5D9636A43F4D1
:100B200000336362052384F82030012038BDFFF7CD
:100B3000D9FBE1E71A6822F002021A60FFF7BAFF58
:100B4000054623685A6812F0020F0DD0FFF7B2FF76
:100B5000401B0A28F5D9636A43F400336362052316
:100B600084F820300120E1E7227E012A3DD01A6876
:100B700022F080021A60637E012B3BD0226813684A
:100B800023F040031360A37E012B39D02268136841
:100B900023F020031360E37E012B37D02268136813
:100BA00043F010031360237F012B35D022681368B4
:100BB00023F008031360637F012B33D0226813688E
:100BC00023F004031360A368E2681343226913430C
:100BD000626913436268013A21681343CB610020C4
:100BE0006062012384F82030A0E71A6842F0800296
:100BF0001A60C0E72268136843F040031360C2E73D
:100C00002268136843F020031360C4E72268136866
:100C100023F010031360C6E72268136843F008034B
:100C20001360C8E72268136843F004031360CAE73F
:100C30000120704790F82030013BDBB2012B05D931
:100C4000436A43F4802343620120704730B5464B2A
:100C5000D3F8002242F00102C3F80022D3F80022A8
:100C600022F47C52C3F80022D3F80022486A42EAF8
:100C70000022C3F800224A6902F01F02012000FA94
:100C800002F2D3F81C026FEA020C20EA0200C3F859
:100C90001C02CB69C3B9344BD3F80C020CEA000038
:100CA000C3F80C028C884869CD6844EA0544483092
:100CB00043F830408C68088840EA04404C6904F1ED
:100CC000480E03EBCE035860CB69012B1ED08B6915
:100CD000002B33D12448D0F804320CEA0303C0F8C7
:100CE00004320B698BBB2048D0F814320CEA0303A2
:100CF000C0F814320B6A012B2ED01B4AD2F80032F6
:100D000023F00103C2F80032002030BD164BD3F8A7
:100D10000C021043C3F80C028C8848690D6844EA41
:100D20000544483043F8304088894C698D6840EA72
:100D30000540483403EBC4035860C8E70A48D0F8BC
:100D400004321343C0F80432CBE70748D0F814321A
:100D50001343C0F81432CDE70349D1F81C321343D2
:100D6000C1F81C32C9E700BF0064004070B50446FA
:100D700090F82050EDB2012D06D0436A43F40023D1
:100D800043620125284670BD022380F820300268A6
:100D9000136823F001031360FFF78CFE06462368F7
:100DA0005B6813F0010F0CD0FFF784FE831B0A2B46
:100DB000F5D9636A43F400336362052384F8203075
:100DC000E0E700256562DDE730B590F820C00468F3
:100DD000A4680CF1FF3C5FFA8CFCBCF1010F6BD8EE
:100DE00014F0E05F62D0C4F3016CBCF1020F05D9CE
:100DF000436A43F400034362012062E0012404FAE1
:100E00000CF41C608B68002B3DD10D68CB68046826
:100E100043EA45550CF118031B01E55003680C69C2
:100E20000CF1180E03EB0E135C600B7D012B35D01B
:100E3000D17993791B0443EA0163517943EA012391
:100E400014790168234301EB0C11C1F88C31D1787E
:100E500093781B0443EA0163517843EA0123117834
:100E600002680B4302EB0C12C2F8883102680CF1E5
:100E7000180C4FEA0C1C52F80C3043F0010342F8F6
:100E80000C3000201DE04C6843EAC403CC682343C7
:100E90000CF11804240105682B51BFE7036803EB2C
:100EA0000E13596841F480715960C1E7436A43F4F5
:100EB00000134362012004E0436A43F48023436249
:100EC000012030BD90F820C00CF1FF3C5FFA8CFC93
:100ED000BCF1010F00F2958030B451B90468E468A8
:100EE00014F0030F10D1436A43F40013436201204E
:100EF00077E00468246914F0030F05D1436A43F4D2
:100F00000013436201206CE001F11B042401056819
:100F10002C5904F004049460002C64D101F11B04EA
:100F2000240105682C59640D1460046801F11B0C40
:100F30004FEA0C1C54F80C4004F00204D46004681E
:100F40006444646804F00F041461046864446468D1
:100F5000C4F307249461046864446468240C5461F5
:100F6000026802EB0112D2F8B8211A70026802EB93
:100F70000112D2F8B821C2F307225A70026802EBBC
:100F80000112D2F8B821C2F307429A70026802EB4C
:100F90000112D2F8B821120EDA70026802EB0112C7
:100FA000D2F8BC211A71026802EB0112D2F8BC21FE
:100FB000C2F307225A71026802EB0112D2F8BC2177
:100FC000C2F307429A71026802EB0112D2F8BC2107
:100FD000120EDA7179B90268D36843F02003D36046
:100FE000002030BC704701F11B04240105682C5916
:100FF000E408546099E70268136943F02003136121
:10100000EEE7436A43F4802343620120704790F87F
:101010002030013BDBB2012B05D9436A43F4802326
:10102000436201207047026853690B4353610020FB
:1010300070477047704770477047704770477047F8
:10104000704770477047704770472DE9F84F054665
:1010500003685C69D3F804809F68D3F80CA0D3F8C8
:101060001090D3F818B014F001063BD017F0010629
:1010700016D001229A6017F0020F08D117F0040F62
:101080000CD117F0080606D04FF4805608E0FFF7A1
:10109000D0FF002604E0FFF7CFFF01E04FF4006629
:1010A00017F4807F0DD02B684FF480729A6017F48C
:1010B000007F40F0968017F4806F00F0968046F431
:1010C000005617F4803F0DD02B684FF480329A60A1
:1010D00017F4003F40F0938017F4802F00F09380C6
:1010E00046F4004614F0080F07D01AF0100F04D091
:1010F00046F400762B681022DA6014F0040F03D057
:101100001AF0080F40F0898014F0020F05D02B6808
:10111000DB6813F0030F40F0878014F0400F07D016
:1011200019F0100F04D046F480662B6810221A6163
:1011300014F0200F02D019F0080F79D114F0100F1D
:1011400004D02B681B6913F0030F78D114F4003F0F
:1011500002D018F0100F76D114F4803F02D018F0AE
:10116000080F77D114F4004F37D018F0040F31D0A6
:1011700014F4807F04D01BF0010F01D046F001066B
:1011800014F4007F04D01BF0020F01D046F00206D9
:1011900014F4806F04D01BF0040F01D046F0040655
:1011A00014F4006F16D01BF0700B13D0BBF1400F7E
:1011B00066D056D8BBF1200F5CD0BBF1300F5CD0AD
:1011C000BBF1100F01D146F008062A68936923F09D
:1011D000700393612B6804225A60002E56D1BDE83B
:1011E000F88F2846FFF726FF6BE717F4006F02D051
:1011F00046F4804665E72846FFF71FFF61E728466B
:10120000FFF719FF6EE717F4002F02D046F480367F
:1012100068E72846FFF712FF64E72B680822DA60C8
:101220002846FFF70CFF6FE72846FFF703F974E73E
:101230002B6808221A612846FFF703FF7EE728463D
:10124000FFF7FEFE82E72B6810225A602846FFF760
:10125000F9FE81E72B6808225A602846FFF7F3FE63
:1012600080E7BBF1500F0ED0BBF1600FADD146F45B
:101270008076AAE746F01006A7E746F02006A4E726
:1012800046F04006A1E746F080069EE76B6A3343CE
:101290006B622846FFF7D8FEA1E70000002808DBB4
:1012A0000901C9B200F1604000F5614080F8001307
:1012B000704700F00F000901C9B2014B1954704783
:1012C00014ED00E000B500F00700C0F1070CBCF120
:1012D000040F28BF4FF0040C031D062B0FD9C31EAB
:1012E0004FF0FF3E0EFA0CF021EA000199400EFA91
:1012F00003FE22EA0E0241EA02005DF804FB00232D
:10130000EEE70000074AD36823F4E0631B041B0CDC
:10131000000200F4E060034343F0BF6343F4003392
:10132000D360704700ED00E010B50446054BD86867
:10133000C0F30220FFF7C6FF01462046FFF7AEFFCD
:1013400010BD00BF00ED00E0002807DB00F01F0229
:10135000400901239340024A42F82030704700BF01
:1013600000E100E00138B0F1807F0BD24FF0E023C4
:101370005861054AF02182F8231000209861072265
:101380001A6170470120704700ED00E010B4036857
:10139000D9B210390A4AA2FB01421209094CA25CD7
:1013A000C2655F2907D96FF3090304338365806D34
:1013B0005DF8044B70476FF309038365F7E700BFDF
:1013C000ABAAAAAA9C330008836A826992B9012B4E
:1013D0000AD0022B02D00BB100207047C36A13F071
:1013E000807F28D100207047C36AB3F1C07F24D02A
:1013F00000207047B2F5005F09D0022B25D9032BDE
:1014000025D1C36A13F0807F23D100207047032BBE
:1014100003D8DFE803F01404140A00207047C36AFD
:1014200013F0807F0DD100207047C36AB3F1C07FF5
:1014300009D000207047012070470120704701202B
:10144000704701207047012070470120704700203D
:10145000704701207047000070B50446FFF72AFB73
:10146000002C5BD00546022384F83530002384F835
:1014700034302268136823F00103136023681A686C
:1014800012F0010F0AD0FFF715FB431B052BF5D90E
:1014900020236365032084F8350070BD1A68204955
:1014A00011406268A0680243E06802432069024379
:1014B00060690243A0690243E0690243206A024373
:1014C0000A43616A04291ED01A602668756925F0EE
:1014D0000705636A1D43042B07D1A36A1D43E36A12
:1014E0001BB12046FFF770FF90B975612046FFF7EA
:1014F0004DFFE26D3F239340836000206065012330
:1015000084F83530C9E7E16A206B01430A43DBE721
:1015100040236365012084F83500BEE70120BCE765
:101520003F8010F070B50446866DFFF7C3FA94F85B
:101530003530DBB2022B06D080236365002384F8AC
:101540003430012070BD05462268136823F016036D
:1015500013602268536923F080035361236CE3B165
:101560002268136823F0080313602268136823F0CD
:101570000103136023681B6813F0010F11D0FFF7FC
:1015800099FA431B052BF5D920236365032084F8C2
:101590003500002384F83430D4E7A36C002BDFD16E
:1015A000E3E7E26D3F239340B360012384F83530D5
:1015B000002084F83400C5E790F83530DBB2022B08
:1015C00003D08023436501207047052380F8353020
:1015D0000268136823F001031360002070470000C5
:1015E000F0B583B0044600230193724B1D68724B23
:1015F000A3FB0535AD0A876D3E68C26D0823934095
:10160000334210D003681A6812F0040F0BD01A6826
:1016100022F004021A60C26D08239340BB60436D40
:1016200043F001034365E26D01239340334209D047
:101630002268526912F0800F04D0BB60636D43F0E2
:1016400002036365E26D04239340334209D02268AC
:10165000126812F0020F04D0BB60636D43F0040304
:101660006365E26D10239340334224D022681268F0
:1016700012F0080F1FD0BB6023681A6812F4802F85
:101680000DD01B6813F4002F04D1236C9BB12046AE
:10169000984710E0A36C73B1204698470BE01A6896
:1016A00012F4807F03D11A6822F008021A60236CBA
:1016B0000BB120469847E26D20239340334255D02A
:1016C0002268126812F0100F50D0BB6094F83530C9
:1016D000DBB2052B0ED023681A6812F4802F33D0AA
:1016E0001B6813F4002F2AD1636C002B3ED02046D8
:1016F00098473BE02268136823F0160313602268C2
:10170000536923F080035361236CA3B122681368EB
:1017100023F008031360E26D3F239340BB60012375
:1017200084F83530002384F83430236D002B3FD00B
:10173000204698473CE0A36C002BE7D1EBE7E36B36
:10174000A3B12046984711E01A6812F4807F09D1AE
:101750001A6822F010021A60012384F83530002341
:1017600084F83430E36B0BB120469847636DFBB1CE
:10177000636D13F0010F17D0052384F8353022680C
:10178000136823F001031360019B01330193AB4203
:1017900004D823681B6813F0010FF5D1012384F8E6
:1017A0003530002384F83430E36C0BB12046984781
:1017B00003B0F0BD10000020B5814E1B00230F2B9D
:1017C00000F2E98070B582B065E085684FEA430EAB
:1017D000032404FA0EF425EA0405CC6804FA0EF496
:1017E0002C438460446824EA02044A68C2F300126D
:1017F0009A40224342605CE0DC08083450F8242020
:1018000003F00705AD004FF00F0E0EFA05FE22EAB9
:101810000E0E0A69AA4042EA0E0240F824205CE05B
:10182000072200E0002202FA0EF22A4302345A4D47
:1018300045F82420594A94686FEA0C0224EA0C0502
:101840004E6816F4801F01D04CEA0405534CA56085
:10185000E46802EA04054E6816F4001F01D04CEA61
:1018600004054E4CE560646802EA04054E6816F40F
:10187000003F01D04CEA0405484C656024682240D2
:101880004D6815F4803F01D04CEA0402434C2260BD
:1018900001330F2B7DD801229A400C6804EA020C18
:1018A00032EA0404F4D14C6804F00304013C012C36
:1018B0008BD94A6802F00302032A09D0C4685D008C
:1018C0000322AA4024EA02048A68AA402243C26092
:1018D0004A6802F00302022A8ED004684FEA430EDF
:1018E000032202FA0EF224EA02044A6802F003021A
:1018F00002FA0EF2224302604A6812F4403FC7D057
:1019000000220192264A546C44F480445464526C80
:1019100002F480420192019A9C08A51C1E4A52F8CA
:10192000255003F0030E4FEA8E0E0F2202FA0EF23C
:1019300025EA02051B4A90423FF474AF02F580622B
:1019400090421AD002F58062904218D002F580626F
:10195000904216D002F58062904214D002F5806267
:10196000904212D002F58062904210D002F580625F
:1019700090423FF455AF082255E7012253E7022277
:1019800051E703224FE704224DE705224BE70622E9
:1019900049E702B070BD704700380140003C01408B
:1019A0000038024000000240002800F0E08170B5DD
:1019B00082B00446036813F0010F3BD09F4B9B6835
:1019C00003F00C03042B2CD09C4B9B6803F00C03FE
:1019D000082B21D06368B3F5803F4FD0B3F5A02F1B
:1019E00052D0964B1A6822F480321A601A6822F498
:1019F00080221A606368002B50D0FFF75BF8054621
:101A00008E4B1B6813F4003F14D1FFF753F8401BB3
:101A10006428F5D90320B1E1884B5B6813F4800F8B
:101A2000D8D0864B1B6813F4003F03D06368002BAB
:101A300000F09F81236813F0020F54D07F4B9B6806
:101A400013F00C0F3ED07D4B9B6803F00C03082B6A
:101A500033D0E368002B68D0794B01221A60FFF77E
:101A600029F80546754B1B6813F0020F54D1FFF798
:101A700021F8401B0228F5D903207FE16F4A136843
:101A800043F480331360B5E76C4B1A6842F480224C
:101A90001A601A6842F480321A60ABE7FFF70AF85E
:101AA0000546664B1B6813F4003FC3D0FFF702F8EE
:101AB000401B6428F5D9032060E1604B5B6813F498
:101AC000800FC6D15D4B1B6813F0020F03D0E36893
:101AD000012B40F05081594A136823F0F803216923
:101AE00043EAC1031360236813F0080F42D063690F
:101AF0006BB3534B0122C3F8802EFEF7DBFF054684
:101B00004E4B5B6F13F0020F34D1FEF7D3FF401B37
:101B10000228F5D9032031E1484A136823F0F8037D
:101B2000216943EAC1031360DDE7454B00221A60D7
:101B3000FEF7C0FF0546414B1B6813F0020FD2D0E1
:101B4000FEF7B8FF401B0228F5D9032016E13C4BF5
:101B50000022C3F8802EFEF7ADFF0546374B5B6FC2
:101B600013F0020F06D0FEF7A5FF401B0228F5D99F
:101B7000032003E1236813F0040F77D02F4B1B6C75
:101B800013F0805F33D1002301932C4B1A6C42F089
:101B900080521A641B6C03F080530193019B012552
:101BA000284B1B6813F4807F23D0A368012B34D00B
:101BB000052B38D0214B1A6F22F001021A671A6FD9
:101BC00022F004021A67A368002B3DD0FEF772FFD3
:101BD00006461A4B1B6F13F0020F46D1FEF76AFF41
:101BE000801B41F288339842F3D90320C6E00025D8
:101BF000D6E7144A136843F480731360FEF75AFF64
:101C00000646104B1B6813F4807FCED1FEF752FFBF
:101C1000801B0228F5D90320B0E0084A136F43F077
:101C200001031367CFE7054B1A6F42F004021A67EE
:101C30001A6F42F001021A67C5E700BF0038024080
:101C40000000474200700040FEF734FF0646524B4A
:101C50001B6F13F0020F08D0FEF72CFF801B41F220
:101C600088339842F3D9032088E0EDB9A369002BAB
:101C700000F08380484A926802F00C02082A51D092
:101C8000022B17D0454B00221A66FEF713FF0446BD
:101C9000414B1B6813F0007F42D0FEF70BFF001B87
:101CA0000228F5D9032069E03B4A136C23F08053E6
:101CB0001364DBE7394B00221A66FEF7FBFE05468C
:101CC000354B1B6813F0007F06D0FEF7F3FE401B78
:101CD0000228F5D9032051E0E369226A1343626ABE
:101CE00043EA8213A26A5208013A43EA0243E26AD3
:101CF00043EA0263284A5360284B01221A66FEF722
:101D0000D9FE0446244B1B6813F0007F06D1FEF772
:101D1000D1FE001B0228F5D903202FE000202DE082
:101D200000202BE0012B2BD01B4B5B6803F48001C0
:101D3000E269914226D103F03F02216A8A4223D10F
:101D4000616A47F6C0721A40B2EB811F1ED103F4DC
:101D50004031A26A5208013AB1EB024F18D103F0A8
:101D60007063E26AB3EB026F14D1002006E0012039
:101D70007047012002E0012000E0002002B070BDA9
:101D80000120FBE70120F9E70120F7E70120F5E753
:101D90000120F3E70120F1E700380240000047424C
:101DA00008B5264B9B6803F00C03042B41D0082B8D
:101DB00041D1224B5A6802F03F025B6813F4800F56
:101DC00012D01E4B5968C1F388111D480023A1FB96
:101DD0000001FEF72DFA194B5B68C3F30143013391
:101DE0005B00B0FBF3F008BD144B5868C0F38810DB
:101DF0004FEA401CBCEB000C6EEB0E0E4FEA8E134C
:101E000043EA9C634FEA8C11B1EB0C0163EB0E03C8
:101E1000DB0043EA5173C90011EB000C43F10003EE
:101E2000990200234FEA8C2041EA9C51FEF700FA08
:101E3000D1E70348D7E70348D5E700BF00380240A1
:101E4000001BB7000024F400002800F09B8070B550
:101E50000D4604464F4B1B6803F007038B4208D224
:101E6000CBB24C4A1370136803F007038B4240F067
:101E70008B80236813F0020F17D013F0040F04D0E7
:101E8000454A936843F4E0539360236813F0080FC6
:101E900004D0414A936843F4604393603E4A936898
:101EA00023F0F003A1680B439360236813F0010F44
:101EB00032D06368012B21D09A1E012A25D9364AD7
:101EC000126812F0020F61D033498A6822F00302CF
:101ED00013438B60FEF7EEFD06462F4B9B6803F025
:101EE0000C036268B3EB820F16D0FEF7E3FD801B94
:101EF00041F288339842F0D9032042E0264A126822
:101F000012F4003FE0D101203BE0234A126812F0B6
:101F1000007FD9D1012034E01E4B1B6803F007037A
:101F2000AB4207D9EAB21B4B1A701B6803F00703D8
:101F3000AB422DD1236813F0040F06D0164A9368E4
:101F400023F4E053E1680B439360236813F0080F18
:101F500007D0114A936823F46043216943EAC1031F
:101F60009360FFF71DFF0C4B9B68C3F303130B4AF1
:101F7000D35CD8400A4B18600A4B1868FEF74EFD38
:101F8000002070BD012070470120FAE70120F8E72A
:101F90000120F6E7003C0240003802408C33000884
:101FA0001000002018000020014B1868704700BF87
:101FB0001000002008B5FFF7F7FF044B9B68C3F340
:101FC0008223034AD35CD84008BD00BF00380240DA
:101FD0008433000808B5FFF7E7FF044B9B68C3F3A1
:101FE0004233034AD35CD84008BD00BF00380240EA
:101FF00084330008026802F10C0353E8003F23F425
:1020000090730C3242E800310029F3D1026802F1EA
:10201000140353E8003F23F00103143242E8003177
:102020000029F3D1036B012B05D0202380F83E302B
:10203000002303637047026802F10C0353E8003F7A
:1020400023F010030C3242E800310029F3D1ECE711
:1020500090F83D30DBB2212B01D00220704783681D
:10206000B3F5805F17D0036A5A1C02621A780368BE
:102070005A60C38C9BB2013B9BB2C3844BB90268CC
:10208000D36823F08003D3600268D36843F0400331
:10209000D360002070470369002BE4D1036A1B88DA
:1020A0000268C3F308035360036A02330362E0E784
:1020B00010B504460268136923F44053C1680B430A
:1020C0001361836802691A4343691A43C3691A4357
:1020D0000168CB6823F4164323F00C031343CB6051
:1020E0000268536923F4407381690B4353610368A9
:1020F000314A934206D002F58062934202D0FFF744
:1021000059FF01E0FFF766FFE369B3F5004F29D0FF
:102110000021031849411B1841F10001C90041EA9F
:102120005371DB00181863684FEA83024FEA937318
:1021300041F10001FEF77CF8204AA2FB0031490979
:10214000642303FB11031B013233A2FB03235B094E
:1021500003F0F00202EB011203F00F0321681344B5
:102160008B6010BD0023021843EB0301121841F1EC
:102170000001C90041EA5271D200101841F100017A
:10218000626892185B41FEF753F80C4AA2FB0031DB
:102190004909642303FB1103DB003233A2FB032351
:1021A0005B095A0002F4F87202EB011203F0070314
:1021B000216813448B60D4E7001001401F85EB5168
:1021C0002DE9F84305460F4616469946DDF820806E
:1021D0002B681C6837EA04040CBF01240024B442B5
:1021E0002DD1B8F1FF3FF3D0B8F1000F05D0FEF7C5
:1021F00061FCA0EB09004045EAD92A6802F10C0312
:1022000053E8003F23F4D0730C3242E80031002938
:10221000F3D12A6802F1140353E8003F23F00103CD
:10222000143242E800310029F3D1202385F83D30F3
:1022300085F83E30002385F83C30032000E0002084
:10224000BDE8F88358B310B5044690F83D300BB3A1
:10225000242384F83D302268D36823F40053D360EC
:102260002046FFF725FF2268136923F4904313618A
:102270002268536923F02A0353612268D36843F428
:102280000053D36000202064202384F83D3084F87C
:102290003E3010BD80F83C30FEF728FBD8E7012027
:1022A00070472DE9F04182B01E4690F83D30DBB218
:1022B000202B54D104460D469046002953D0002AC5
:1022C00053D090F83C30012B51D0012380F83C30A2
:1022D00000230364212380F83D30FEF7EBFB074623
:1022E000A4F82480A4F82680A368B3F5805F05D005
:1022F0004FF00008002384F83C3012E0236913B14A
:102300004FF00008F6E7A8460025F3E738F8023B4F
:102310002268C3F308035360E28C92B2013A92B28E
:10232000E284E38C9BB273B100963B46002280218D
:102330002046FFF745FFE0B9002DE7D015F8012B47
:1023400023685A60E8E700963B4600224021204679
:10235000FFF736FF78B9202384F83D3000E00220F3
:1023600002B0BDE8F0810120FAE70120F8E7022081
:10237000F6E70320F4E70320F2E7704708B50168A9
:10238000CA6822F04002CA60202280F83D20FFF790
:10239000F4FF002008BD7047704708B5806B00232C
:1023A000C385C384FFF7F8FF08BD704790F83E303F
:1023B000DBB2222B67D18368B3F5805F4DD0826A90
:1023C000B3F5805F04D0002B54D10369002B51D1A9
:1023D00003685B681370836A01338362C38D9BB2A9
:1023E000013B9BB2C385002B4FD100B583B002687F
:1023F000D36823F02003D3600268D36823F480738A
:10240000D3600268536923F001035361202380F8ED
:102410003E30036B012B33D100230363026802F1CA
:102420000C0353E8003F23F010030C3242E8003164
:102430000029F3D103681A6812F0100F06D00022A9
:1024400001921A6801925B680193019B818DFFF7ED
:10245000ACFF002003B05DF804FB0269002AAED196
:10246000826A03685B68C3F308031380836A0233DC
:102470008362B3E703685B6803F07F031370AAE726
:10248000FFF789FFE5E70220704700207047000052
:1024900010B582B0044602681368D068516913F021
:1024A0000F0F09D113F0200F0CD010F0200F09D01E
:1024B0002046FFF77BFF16E011F0010115D110F463
:1024C000907F12D1216B012979D013F0800F03D0B6
:1024D00010F0800F40F0108113F0400F03D010F087
:1024E000400F40F00D8102B010BD13F0010F06D077
:1024F00010F4807F03D0226C42F00102226413F0BA
:10250000040F04D019B1226C42F00202226413F0CD
:10251000020F04D019B1226C42F00402226413F0BD
:10252000080F07D010F0200F00D119B1226C42F033
:1025300008022264226C002AD5D013F0200F02D0AA
:1025400010F0200F29D123685B6903F04003226C4F
:1025500012F0080F00D163B32046FFF74BFD23684C
:102560005B6913F0400F20D0226802F1140353E896
:10257000003F23F04003143242E800310029F3D138
:10258000A36B73B1604A1A65A06BFFF715F80028BA
:10259000A9D0A06B036D9847A5E72046FFF706FF7B
:1025A000D1E72046FFF7F8FE9DE72046FFF7F4FE4F
:1025B00099E72046FFF7F0FE0023236493E713F02A
:1025C000100F82D010F0100F3FF47FAF0023019363
:1025D0001368019353680193019B536913F0400FF3
:1025E00050D0A26B13685B689BB2002B3FF47BAFAB
:1025F000A18D99427FF677AFE385D369B3F5807FEC
:1026000037D0226802F10C0353E8003F23F48073B3
:102610000C3242E800310029F3D1226802F11403A0
:1026200053E8003F23F00103143242E8003100294F
:10263000F3D1226802F1140353E8003F23F0400372
:10264000143242E800310029F3D1202384F83E30CF
:1026500000232363226802F10C0353E8003F23F0B8
:1026600010030C3242E800310029F3D1A06BFEF7D1
:1026700059FFA18DE38D9BB2C91A89B22046FFF79D
:1026800094FE30E7A18DE38D9BB2C91A89B2E38D28
:102690009BB2002B3FF427AF00293FF424AF226800
:1026A00002F10C0353E8003F23F490730C3242E82C
:1026B00000300028F3D1226802F1140353E8003FF0
:1026C00023F00103143242E800300028F3D1202324
:1026D00084F83E3000232363226802F10C0353E8A0
:1026E000003F23F010030C3242E800300028F3D101
:1026F0002046FFF75AFEF6E62046FFF7A9FCF2E671
:102700002046FFF73BFEEEE69B230008DFF834D0BF
:102710000D480E490E4A002302E0D458C450043339
:10272000C4188C42F9D30B4A0B4C002301E0136010
:102730000432A242FBD3FEF7B3F800F039F8FDF7FC
:102740007DFF704700000220000000206C00002088
:10275000E83300086C00002044030020FEE700007E
:102760000EB400B59CB01DAB029006906FF0004116
:10277000094807910491094953F8042B0591006811
:10278000019302A900F08EF9029B00221A701CB07E
:102790005DF804EB03B070471C0000200802FFFF47
:1027A00002440346934200D1704703F8011BF9E746
:1027B00070B50D4D0D4C641BA4100026A64209D126
:1027C0000B4D0C4C00F0D0FD641BA4100026A6425B
:1027D00005D170BD55F8043B98470136EEE755F832
:1027E000043B98470136F2E7E0330008E033000885
:1027F000E0330008E43300087047704738B50546F9
:10280000002941D051F8043C0C1F002BB8BFE4183C
:1028100000F0E0F81D4A136833B96360146028467D
:10282000BDE8384000F0DCB8A34208D92068211880
:102830008B4201BF19685B6809182160EDE71A46F1
:102840005B680BB1A342FAD911685018A0420BD1B2
:1028500020680144501883421160E0D118685B6819
:10286000536008441060DAE702D90C232B60D6E7E6
:10287000206821188B4204BF19685B68636004BF3D
:10288000091821605460CAE738BD00BF3C0300202E
:1028900070B50F4E0C463168054611B900F0A4FB27
:1028A00030602146284600F09FFB431C03D14FF0C7
:1028B000FF34204670BDC41C24F00304A042F8D0AD
:1028C000211A284600F090FB0130F2D1EFE700BF5B
:1028D000380300202DE9F843CD1C25F00305083509
:1028E0000C2D38BF0C25002D064601DBA94204D96A
:1028F0000C2333600020BDE8F883DFF8D48000F0BB
:1029000069F8D8F800301C4644BB29463046FFF72A
:10291000BFFF431C044658D1D8F800402746002F7B
:1029200043D1002C4BD023683946304604EB0309D1
:1029300000F05AFB814542D121686D1A2946304684
:10294000FFF7A6FF01303AD023682B442360D8F864
:1029500000305A6862BBC8F800700FE02268521B52
:1029600020D40B2A17D96119A342256018BF5960DA
:10297000636808BFC8F8001062514B60304600F031
:102980002FF804F10B00231D20F00700C21A1CBF12
:102990001B1AA350AFE76268A3420CBFC8F800201F
:1029A0005A60EBE723466468AEE73C467F68B6E7CB
:1029B0001A465B68A342FBD100235360DEE70C2379
:1029C0003360304600F00CF894E70560D6E700BFAE
:1029D0003C0300200148FFF70FBF00BF3403002075
:1029E0000148FFF70ABF00BF340300202DE9F0477C
:1029F0008E681F46BE420B6882460C4690462DD814
:102A0000B1F90C2012F4906F26D06569096905EBC5
:102A10004505A3EB010905EBD5757B1C4B446D10F7
:102A20009D4238BF1D46530527D52946FFF752FF63
:102A3000064660B321694A4600F0E6FAA38923F40A
:102A4000906343F08003A381266165614E44A5EB4A
:102A500009052660A5603E46BE4200D93E46206874
:102A60003246414600F0A6FAA3689B1BA360236888
:102A7000334423600020BDE8F0872A4600F0D2FAF4
:102A800006460028E0D121695046FFF7B7FE0C2327
:102A9000CAF80030A38943F04003A3814FF0FF3010
:102AA000E9E700002DE9F04F98468B891B069DB0A1
:102AB00007460D46144610D50B6973B94021FFF740
:102AC00009FF2860286130B90C233B604FF0FF30CC
:102AD0001DB0BDE8F08F40236B61002309932023D4
:102AE0008DF82930CDF80C803023DFF89C818DF8EB
:102AF0002A304FF0010923469A4613F8012B0AB1F8
:102B0000252AF9D1BAEB040B0BD05B4622462946A5
:102B10003846FFF76BFF013000F0A780099A5A444E
:102B200009929AF80030002B00F09F8000234FF0AC
:102B3000FF32CDE905230AF1010A049307938DF8CA
:102B400053301A935446052214F8011B4E48FDF7E2
:102B50001FFB049AD8B9D00644BF20238DF8533008
:102B6000110744BF2B238DF853309AF800302A2BDD
:102B700015D0079A544600204FF00A0C214611F850
:102B8000013B303B092B4BD9B0B1079214E0A0EBCD
:102B9000080309FA03F313430493A246D2E7039B05
:102BA000191D1B680391002BBBBF5B4242F0020260
:102BB00007930793B8BF049223782E2B0AD163782A
:102BC0002A2B32D1039B1A1D1B68039243EAE3733D
:102BD00002340593DFF8C0A0217803225046FDF7A8
:102BE000D7FA38B1049BA0EB0A004022824013437D
:102BF0000134049314F8011B24488DF82810062290
:102C0000FDF7C6FA002836D0214B1BBB039B0733C8
:102C100023F0070308330393099B334409936AE7BE
:102C20000CFB02320C460120A8E700230134059377
:102C300019464FF00A0C204610F8012B303A092AA9
:102C400003D9002BC6D00591C4E70CFB0121044633
:102C50000123F0E703AB00932A460E4B04A9384644
:102C6000AFF30080421C0646D6D1AB895B063FF528
:102C70002DAF09982CE703AB00932A46054B04A916
:102C8000384600F079F8EDE7A4330008AE330008C9
:102C900000000000ED290008AA3300082DE9F047E4
:102CA000164698468A680B69DDF820909342B8BFB3
:102CB0001346336091F8432007460C460AB10133AE
:102CC00033602368990642BF336802333360256856
:102CD00015F0060506D104F1190AE36832689B1A5B
:102CE000AB4226DC94F843302268003B18BF012336
:102CF00092062BD404F1430241463846C8470130BE
:102D00001ED02368226903F00603042B02BFE56886
:102D10003368ED1AA3680CBF25EAE57500259342D8
:102D2000C4BF9B1AED1800261A34B5421AD10020F0
:102D300008E00123524641463846C847013003D1D6
:102D40004FF0FF30BDE8F0870135C6E7E1185A1CA7
:102D5000302081F84300224494F8451082F8431053
:102D60000233C7E70123224641463846C8470130AF
:102D7000E6D00136D9E700002DE9FF470F7E0C9E13
:102D8000782F914680460C469A4601F1430207D8B7
:102D9000622F0AD8002F00F0D180582F00F0B880A1
:102DA00004F1420684F842703AE0A7F16303152B60
:102DB000F6D801A151F823F0112E0008252E0008A5
:102DC000A12D0008A12D0008A12D0008A12D0008AB
:102DD000252E0008A12D0008A12D0008A12D000816
:102DE000A12D0008232F00084F2E0008DD2E00081B
:102DF000A12D0008A12D0008452F0008A12D0008D5
:102E00004F2E0008A12D0008A12D0008E52E000876
:102E100033681A1D1B68326004F1420684F84230A0
:102E200001239CE033682068191D3160060601D536
:102E30001D6803E04506FBD5B3F90050002D03DA09
:102E40002D236D4284F8433058480A2311E021684D
:102E50003368080653F8045B02D4490648BFADB294
:102E60006F2F5248336014BF0A230823002184F8CF
:102E700043106668A660002E05DB21682E4321F012
:102E8000040121604BD01646B5FBF3F103FB11574B
:102E9000C75D06F8017D2F46BB420D46F4D9082BCD
:102EA0000BD12368DF0708D5236961689942DEBF2B
:102EB000302306F8013C06F1FF36921B2261CDF863
:102EC00000A04B4603AA21464046FFF7E7FE01302B
:102ED0004AD14FF0FF3004B0BDE8F087236843F0DB
:102EE000200323603248782784F8457023683168CE
:102EF0001F0651F8045B02D45F0648BFADB23160D3
:102F0000D90744BF43F0200323601DB11023ADE770
:102F10002648E9E7236823F020032360F6E71646F6
:102F2000BDE7336825686169181D30602E061B688F
:102F300001D5196002E06806FBD5198000232361E2
:102F40001646BCE733681A1D32601E6862680021AD
:102F50003046FDF71DF908B1801B6060636823618E
:102F6000002384F84330AAE72369324649464046A5
:102F7000D0470130ADD023689B0713D4E068039B92
:102F80009842B8BF1846A6E7012332464946404654
:102F9000D04701309DD00135E36803995B1AAB42FD
:102FA000F2DCEBE7002504F11906F5E7B53300087C
:102FB000C6330008884210B501EB020402D98442EE
:102FC000234607D8431EA14208D011F8012B03F86D
:102FD000012FF8E7024401468A4200D110BD13F8E0
:102FE000014D02F8014DF7E738B5064D00230446C0
:102FF00008462B6000F04CF8431C02D12B6803B14B
:10300000236038BD300300200A44914200F1FF33B1
:1030100000D1704710B511F8014B03F8014F9142F0
:10302000F9D110BD2DE9F041074614460D4621B9EE
:10303000BDE8F0411146FFF74DBC2AB9FFF7DEFBB2
:1030400025462846BDE8F08100F01AF8844206467D
:1030500002D8B4EB500FF4D821463846FFF73AFCBB
:10306000804608B94546ECE7B4422246294628BFC7
:103070003246FFF7C9FF29463846FFF7BFFBF1E7A5
:1030800051F8043C181F002BBCBF0B58C0187047E8
:10309000044A05491368002B08BF0B46184410600A
:1030A0001846704740030020480300202DE9F047F0
:1030B000089D0E4604460F46002B4AD194468C4587
:1030C000B2FA82F260D942B1C2F12003974020FAED
:1030D00003F30CFA02FC1F4394404FEA1C4E1FFA04
:1030E0008CF6B7FBFEF1230C0EFB117743EA074386
:1030F00001FB06F098420AD91CEB030301F1FF37EC
:1031000080F01581984240F21281023963441B1A03
:10311000A4B2B3FBFEF00EFB103344EA034400FB01
:1031200006F6A6420AD91CEB040400F1FF3380F036
:103130000081A64240F2FD806444023840EA01402A
:10314000A41B00211DB1D4400023C5E90043BDE804
:10315000F0878B4205D90DB1C5E900010021084671
:10316000F5E7B3FA83F1002946D1B34202D3824294
:1031700000F2F580841A66EB030201201746002D49
:10318000E5D0C5E90047E2E7002A40F09380A1EBD3
:103190000C034FEA1C471FFA8CFE0121B3FBF7F624
:1031A00007FB1630230C43EA00430EFB06F098425F
:1031B00008D91CEB030306F1FF3802D2984200F253
:1031C000D08046461B1AA4B2B3FBF7F007FB1033BE
:1031D00044EA03440EFB00FEA64508D91CEB040498
:1031E00000F1FF3302D2A64500F2B6801846A4EBE8
:1031F0000E0440EA0640A5E7C1F120078B4022FA01
:1032000007FC4CEA030C06FA01FE20FA07F426FA42
:1032100007F344EA0E0400FA01F84FEA1C404FEAB3
:103220001449B3FBF0FE1FFA8CF600FB1E3349EA8B
:1032300003430EFB06F9994502FA01F20BD91CEB88
:1032400003030EF1FF3A80F08580994540F28280B9
:10325000AEF1020E6344A3EB0909A4B2B9FBF0F38B
:1032600000FB139944EA094403FB06F6A64208D979
:103270001CEB040403F1FF3068D2A64266D9023B7E
:10328000644443EA0E40A41BA0FB02E6B44273462A
:10329000B14652D34FD05DB1B8EB030264EB0904E1
:1032A00004FA07F722FA01F31F43CC40C5E9007482
:1032B00000214CE7C2F1200120FA01F30CFA02FCD4
:1032C00026FA01F1964033434FEA1C471FFA8CFE61
:1032D000B1FBF7F007FB1016190C41EA064100FBA1
:1032E0000EF68E4204FA02F408D91CEB010100F13B
:1032F000FF382DD28E422BD902386144891B9BB2F4
:10330000B1FBF7F607FB161143EA014306FB0EF18A
:10331000994208D91CEB030306F1FF3814D29942F5
:1033200012D9023E63445B1A46EA004136E7394649
:10333000EDE6184602E7F045ADD2BEEB020366EBC0
:103340000C060138B146A6E74646ECE7034698E787
:103350004046D3E7D6467EE76444023847E708464E
:103360000DE7023E63442DE7F8B500BFF8BC08BC8A
:103370009E467047F8B500BFF8BC08BC9E46704733
:1033800025640A00000000000102030400000000A0
:1033900000000000010203040607080900061016D9
:1033A00000061016232D302B2000686C4C0065663B
:1033B0006745464700303132333435363738394186
:1033C000424344454600303132333435363738399C
:0833D0006162636465660000A0
:0833D800B8CDFF7F01000000E9
:0433E0008902000856
:0433E4006502000876
:1033E800FFFFFC7F0000A040000080400000003F7D
:1033F8000024F4000100000010000000200000205C
:1034080000000000F801002060020020C80200202F
:1034180000000000000000000000000000000000A4
:103428000000000000000000000000000000000094
:103438000000000000000000000000000000000084
:0C34480000000000000000000000000078
:040000050800270DBB
:00000001FF
